S01300004D617A6520536F6C7665722E73726563E9
S11300000C943E000C9448000C9448000C94480056
S11300100C9448000C9448000C9448000C9448003C
S11300200C9448000C9448000C9448000C9448002C
S11300300C9448000C9448000C9448000C9448001C
S11300400C9448000C9448000C9448000C9448000C
S11300500C9448000C9448000C9448000C944800FC
S11300600C9448000C9448000C9448000C944800EC
S11300700C9448000C9448000C94480011241FBEB2
S1130080CFEFD8E0DEBFCDBF0E9454010C946101D4
S11300900C9400008AB180638AB9E0E8F0E08081C2
S11300A0836A8083E1E8F0E080818D6080838FEF54
S11300B093E0909389008093880090938B008093C1
S11300C08A00089580E480937C0087E880937A0016
S11300D00895ECE7F0E09081907E892B8083EAE735
S11300E0F0E0808180648083808186FDFDCF8091F3
S11300F078009091790008958BE491E090938900C1
S1130100809388008CE291E090938B0080938A0026
S113011008952A982B9A80E991E090938B0080931C
S11301208A008FEA91E090938900809388002FEFF2
S11301308DE292E2215080409040E1F700C000003F
S11301402B982A9A08952998289A80E991E0909307
S11301508B0080938A008FEA91E0909389008093CA
S113016088002FEF8DE292E2215080409040E1F729
S113017000C000002898299A08952A982B9A80E9AB
S113018091E090938B0080938A008FEA91E09093A2
S11301908900809388002FEF83EC99E02150804000
S11301A09040E1F700C000002B982A9A08952998FE
S11301B0289A80E991E090938B0080938A008FEADB
S11301C091E090938900809388002FEF83EC99E06D
S11301D0215080409040E1F700C000002898299AFF
S11301E0089501E080E00E946900EC0187E00E942C
S11301F06900102F833591400CF410E0812FC73D26
S113020091E0D907F4F5902FC23521E0D2070CF024
S113021090E0813009F045C0911103C00E94A30011
S11302201EC00E9489000E947C008FEF99E628E19D
S1130230815090402040E1F700C0000010C00E94AF
S1130240BD000E947C008FEF93EC29E08150904028
S11302502040E1F700C0000002C00E947C001111A0
S113026003C0C335D14014F05F9A01C05F989FE783
S113027028E381E0915020408040E1F700C0000075
S1130280B1CF113071F20E94D7000E947C009FEF21
S113029023EC89E0915020408040E1F700C0000049
S11302A0DECF9130D1F6CBCF0E944A000E9462008B
S11302B084B18F6084B9579A85B1866085B90E94EC
S10902C0F100F894FFCFE9
S9030000FC
